{
  "contractName": "MyDefiProject",
  "abi": [
    {
      "inputs": [
        {
          "internalType": "address",
          "name": "_uniswap",
          "type": "address"
        }
      ],
      "stateMutability": "nonpayable",
      "type": "constructor"
    },
    {
      "inputs": [
        {
          "internalType": "address",
          "name": "token",
          "type": "address"
        },
        {
          "internalType": "uint256",
          "name": "amountIn",
          "type": "uint256"
        },
        {
          "internalType": "uint256",
          "name": "amountOutMin",
          "type": "uint256"
        },
        {
          "internalType": "uint256",
          "name": "deadline",
          "type": "uint256"
        }
      ],
      "name": "swapTokensForEth",
      "outputs": [],
      "stateMutability": "nonpayable",
      "type": "function"
    }
  ],
  "bytecode": "0x608060405234801561001057600080fd5b50604051610a59380380610a598339818101604052810190610032919061008d565b806000806101000a81548173ffffffffffffffffffffffffffffffffffffffff021916908373ffffffffffffffffffffffffffffffffffffffff16021790555050610108565b600081519050610087816100f1565b92915050565b6000602082840312156100a3576100a26100ec565b5b60006100b184828501610078565b91505092915050565b60006100c5826100cc565b9050919050565b600073ffffffffffffffffffffffffffffffffffffffff82169050919050565b600080fd5b6100fa816100ba565b811461010557600080fd5b50565b610942806101176000396000f3fe608060405234801561001057600080fd5b506004361061002b5760003560e01c80638365546714610030575b600080fd5b61004a60048036038101906100459190610507565b61004c565b005b8373ffffffffffffffffffffffffffffffffffffffff166323b872dd3330866040518463ffffffff1660e01b815260040161008993929190610687565b602060405180830381600087803b1580156100a357600080fd5b505af11580156100b7573d6000803e3d6000fd5b505050506040513d601f19601f820116820180604052508101906100db91906105b7565b506000600267ffffffffffffffff8111156100f9576100f8610873565b5b6040519080825280602002602001820160405280156101275781602001602082028036833780820191505090505b509050848160008151811061013f5761013e610844565b5b602002602001019073ffffffffffffffffffffffffffffffffffffffff16908173ffffffffffffffffffffffffffffffffffffffff168152505060008054906101000a900473ffffffffffffffffffffffffffffffffffffffff1673ffffffffffffffffffffffffffffffffffffffff1663ad5c46486040518163ffffffff1660e01b815260040160206040518083038186803b1580156101df57600080fd5b505afa1580156101f3573d6000803e3d6000fd5b505050506040513d601f19601f8201168201806040525081019061021791906104da565b8160018151811061022b5761022a610844565b5b602002602001019073ffffffffffffffffffffffffffffffffffffffff16908173ffffffffffffffffffffffffffffffffffffffff16815250508473ffffffffffffffffffffffffffffffffffffffff1663095ea7b360008054906101000a900473ffffffffffffffffffffffffffffffffffffffff16866040518363ffffffff1660e01b81526004016102c09291906106be565b602060405180830381600087803b1580156102da57600080fd5b505af11580156102ee573d6000803e3d6000fd5b505050506040513d601f19601f8201168201806040525081019061031291906105b7565b5060008054906101000a900473ffffffffffffffffffffffffffffffffffffffff1673ffffffffffffffffffffffffffffffffffffffff166318cbafe585858433876040518663ffffffff1660e01b81526004016103749594939291906106e7565b600060405180830381600087803b15801561038e57600080fd5b505af11580156103a2573d6000803e3d6000fd5b505050506040513d6000823e3d601f19601f820116820180604052508101906103cb919061056e565b505050505050565b60006103e66103e184610766565b610741565b90508083825260208201905082856020860282011115610409576104086108a7565b5b60005b85811015610439578161041f88826104c5565b84526020840193506020830192505060018101905061040c565b5050509392505050565b600081359050610452816108c7565b92915050565b600081519050610467816108c7565b92915050565b600082601f830112610482576104816108a2565b5b81516104928482602086016103d3565b91505092915050565b6000815190506104aa816108de565b92915050565b6000813590506104bf816108f5565b92915050565b6000815190506104d4816108f5565b92915050565b6000602082840312156104f0576104ef6108b1565b5b60006104fe84828501610458565b91505092915050565b60008060008060808587031215610521576105206108b1565b5b600061052f87828801610443565b9450506020610540878288016104b0565b9350506040610551878288016104b0565b9250506060610562878288016104b0565b91505092959194509250565b600060208284031215610584576105836108b1565b5b600082015167ffffffffffffffff8111156105a2576105a16108ac565b5b6105ae8482850161046d565b91505092915050565b6000602082840312156105cd576105cc6108b1565b5b60006105db8482850161049b565b91505092915050565b60006105f083836105fc565b60208301905092915050565b610605816107cb565b82525050565b610614816107cb565b82525050565b6000610625826107a2565b61062f81856107ba565b935061063a83610792565b8060005b8381101561066b57815161065288826105e4565b975061065d836107ad565b92505060018101905061063e565b5085935050505092915050565b61068181610809565b82525050565b600060608201905061069c600083018661060b565b6106a9602083018561060b565b6106b66040830184610678565b949350505050565b60006040820190506106d3600083018561060b565b6106e06020830184610678565b9392505050565b600060a0820190506106fc6000830188610678565b6107096020830187610678565b818103604083015261071b818661061a565b905061072a606083018561060b565b6107376080830184610678565b9695505050505050565b600061074b61075c565b90506107578282610813565b919050565b6000604051905090565b600067ffffffffffffffff82111561078157610780610873565b5b602082029050602081019050919050565b6000819050602082019050919050565b600081519050919050565b6000602082019050919050565b600082825260208201905092915050565b60006107d6826107e9565b9050919050565b60008115159050919050565b600073ffffffffffffffffffffffffffffffffffffffff82169050919050565b6000819050919050565b61081c826108b6565b810181811067ffffffffffffffff8211171561083b5761083a610873565b5b80604052505050565b7f4e487b7100000000000000000000000000000000000000000000000000000000600052603260045260246000fd5b7f4e487b7100000000000000000000000000000000000000000000000000000000600052604160045260246000fd5b600080fd5b600080fd5b600080fd5b600080fd5b6000601f19601f8301169050919050565b6108d0816107cb565b81146108db57600080fd5b50565b6108e7816107dd565b81146108f257600080fd5b50565b6108fe81610809565b811461090957600080fd5b5056fea2646970667358221220c586330c60ab9cd3893639f60402ab30a466b00e0b08af7eb42796dd6890767564736f6c63430008060033",
  "immutableReferences": {},
  "source": "pragma solidity ^0.8.6;\r\n//SPDX-License-Identifier:UNLICENSED\r\n\r\n//interface for a router contract\r\ninterface IUniswap{\r\nfunction swapExactTokensForETH(\r\n        uint amountIn, \r\n        uint amountOutMin, \r\n        address[] calldata path, \r\n        address to, \r\n        uint deadline)\r\n        external\r\n        \r\n        returns (uint[] memory amounts);\r\n        //reach the address ow wrapped ether\r\n        function WETH() external pure returns (address);\r\n}\r\n\r\ninterface IERC20{\r\n    //from openZeppelin\r\n      function transferFrom(\r\n        address sender,\r\n        address recipient,\r\n        uint256 amount\r\n    ) external returns (bool);\r\n    \r\n    function approve(address spender, uint256 amount) external returns (bool);\r\n}\r\n\r\ncontract MyDefiProject{\r\n    //pointer to Uniswap\r\n    IUniswap uniswap;\r\n    \r\n    constructor(address _uniswap){\r\n        uniswap = IUniswap(_uniswap);\r\n        \r\n    }\r\n    \r\n    //able exvhange tokens by uniswap\r\n    function swapTokensForEth(\r\n        address token,\r\n        //amount of token we provide in input or spend\r\n        uint amountIn,\r\n        //minimum amount of ether we want \r\n        uint amountOutMin,\r\n        //deadline when the trade is not valid anymore\r\n        uint deadline)\r\n        external {\r\n            //move tokens from the sending address to the address of this smart contract\r\n            //before calling the function we call a approve on ERC20 token we want to send\r\n            IERC20(token).transferFrom(msg.sender, address(this), amountIn);\r\n            //array of addresses of length 2\r\n            address[] memory path = new address[](2);\r\n            path[0] = token;\r\n            path[1] = uniswap.WETH();\r\n            //operation need to approve uniswap to spend our token\r\n            //not gonna work unless we approve it\r\n            IERC20(token).approve(address(uniswap), amountIn);\r\n            uniswap.swapExactTokensForETH(\r\n                //first argument \r\n                amountIn,\r\n                amountOutMin,\r\n                path,\r\n                //send direct to the sender and not stay in the contract\r\n                msg.sender,\r\n                deadline\r\n                );\r\n        }\r\n    \r\n    \r\n}\r\n\r\n\r\n\r\n\r\n\r\n\r\n\r\n\r\n\r\n\r\n\r\n\r\n\r\n\r\n\r\n\r\n\r\n\r\n\r\n\r\n\r\n\r\n",
  "sourcePath": "C:\\Users\\const\\Desktop\\Defi\\Uniswap\\contracts\\MyDefiProject.sol",
  "compiler": {
    "name": "solc",
    "version": "0.8.6+commit.11564f7e.Emscripten.clang"
  },
  "schemaVersion": "3.4.2",
  "updatedAt": "2021-09-05T23:18:59.543Z",
  "devdoc": {
    "kind": "dev",
    "methods": {},
    "version": 1
  },
  "userdoc": {
    "kind": "user",
    "methods": {},
    "version": 1
  }
}